{
  "contractName": "King",
  "abi": [
    {
      "constant": true,
      "inputs": [
        {
          "name": "",
          "type": "uint256"
        }
      ],
      "name": "jobs",
      "outputs": [
        {
          "name": "",
          "type": "uint256"
        }
      ],
      "payable": false,
      "stateMutability": "view",
      "type": "function"
    },
    {
      "constant": true,
      "inputs": [
        {
          "name": "",
          "type": "uint256"
        }
      ],
      "name": "lastResults",
      "outputs": [
        {
          "name": "",
          "type": "uint256"
        }
      ],
      "payable": false,
      "stateMutability": "view",
      "type": "function"
    },
    {
      "constant": true,
      "inputs": [],
      "name": "razor",
      "outputs": [
        {
          "name": "",
          "type": "address"
        }
      ],
      "payable": false,
      "stateMutability": "view",
      "type": "function"
    },
    {
      "constant": true,
      "inputs": [],
      "name": "numJobs",
      "outputs": [
        {
          "name": "",
          "type": "uint256"
        }
      ],
      "payable": false,
      "stateMutability": "view",
      "type": "function"
    },
    {
      "constant": true,
      "inputs": [],
      "name": "king",
      "outputs": [
        {
          "name": "",
          "type": "uint256"
        }
      ],
      "payable": false,
      "stateMutability": "view",
      "type": "function"
    },
    {
      "inputs": [],
      "payable": false,
      "stateMutability": "nonpayable",
      "type": "constructor"
    },
    {
      "constant": false,
      "inputs": [
        {
          "name": "jobId",
          "type": "uint256"
        }
      ],
      "name": "addFeed",
      "outputs": [],
      "payable": false,
      "stateMutability": "nonpayable",
      "type": "function"
    },
    {
      "constant": false,
      "inputs": [],
      "name": "findKing",
      "outputs": [],
      "payable": false,
      "stateMutability": "nonpayable",
      "type": "function"
    }
  ],
  "bytecode": "0x60806040526000600255600060035534801561001a57600080fd5b507349b16f1e15d611dcf87b9a3e51f86c41b2aa56e46000806101000a81548173ffffffffffffffffffffffffffffffffffffffff021916908373ffffffffffffffffffffffffffffffffffffffff1602179055506105108061007e6000396000f3fe608060405234801561001057600080fd5b506004361061007d5760003560e01c80639212051c1161005b5780639212051c14610150578063b7e785b61461016e578063cc181ca81461019c578063cf8975c3146101ba5761007d565b8063180aedf3146100825780633924ec8a146100c4578063426dbe4e14610106575b600080fd5b6100ae6004803603602081101561009857600080fd5b81019080803590602001909291905050506101c4565b6040518082815260200191505060405180910390f35b6100f0600480360360208110156100da57600080fd5b81019080803590602001909291905050506101e5565b6040518082815260200191505060405180910390f35b61010e610206565b604051808273ffffffffffffffffffffffffffffffffffffffff1673ffffffffffffffffffffffffffffffffffffffff16815260200191505060405180910390f35b61015861022b565b6040518082815260200191505060405180910390f35b61019a6004803603602081101561018457600080fd5b8101908080359060200190929190505050610231565b005b6101a4610299565b6040518082815260200191505060405180910390f35b6101c261029f565b005b600181815481106101d157fe5b906000526020600020016000915090505481565b600481815481106101f257fe5b906000526020600020016000915090505481565b6000809054906101000a900473ffffffffffffffffffffffffffffffffffffffff1681565b60025481565b600181908060018154018082558091505090600182039060005260206000200160009091929091909150555060016002540160028190555060046000908060018154018082558091505090600182039060005260206000200160009091929091909150555050565b60035481565b600080905060008090506000809050600080905060008090505b6001805490508110156104ad5760008060009054906101000a900473ffffffffffffffffffffffffffffffffffffffff1673ffffffffffffffffffffffffffffffffffffffff1663995e43396001848154811061031257fe5b90600052602060002001546040518263ffffffff1660e01b81526004018082815260200191505060206040518083038186803b15801561035157600080fd5b505afa158015610365573d6000803e3d6000fd5b505050506040513d602081101561037b57600080fd5b810190808051906020019092919050505090506004828154811061039b57fe5b906000526020600020015481111561040a5785600483815481106103bb57fe5b90600052602060002001548203111561040557600482815481106103db57fe5b906000526020600020015481039550600182815481106103f757fe5b906000526020600020015494505b610483565b6004828154811061041757fe5b90600052602060002001548110156104825783816004848154811061043857fe5b906000526020600020015403101561048157806004838154811061045857fe5b90600052602060002001540393506001828154811061047357fe5b906000526020600020015492505b5b5b806004838154811061049157fe5b90600052602060002001819055505080806001019150506102b9565b5060008411156104c357826003819055506104d5565b60008211156104d457806003819055505b5b5050505056fea265627a7a723058209c48074e580139ca421b94aac377035edce648f81ccf6605ea734d19ee07621164736f6c634300050a0032",
  "source": "pragma solidity 0.5.10;\n\ninterface Razor {\n    function getResult(uint256 id) external view returns (uint256);\n    function getJob(uint256 id) external view returns(string memory url, string memory selector, string memory name, bool repeat, uint256 result);\n}\n\ncontract King {\n    Razor public razor;\n    uint256[] public jobs;\n    uint256 public numJobs = 0;\n    uint256 public king = 0;\n    uint256[] public lastResults;\n\n    constructor() public {\n        razor = Razor(0x49b16f1e15d611DcF87b9A3E51F86C41b2aa56E4);\n    }\n\n    function addFeed(uint256 jobId) public {\n        jobs.push(jobId);\n        numJobs = numJobs + 1;\n        lastResults.push(0);\n    }\n\n    function findKing() public {\n        uint256 highestGain = 0;\n        uint256 highestGainer = 0;\n        uint256 leastLoss = 0;\n        uint256 leastLoser = 0;\n        for(uint256 i = 0; i < jobs.length; i++) {\n            uint256 price = razor.getResult(jobs[i]);\n            if(price > lastResults[i]) {\n                if(price - lastResults[i] > highestGain) {\n                    highestGain = price - lastResults[i];\n                    highestGainer = jobs[i];\n                }\n            } else if(price < lastResults[i]) {\n                    if(lastResults[i] - price < leastLoss) {\n                        leastLoss = lastResults[i] - price;\n                        leastLoser = jobs[i];\n                    }\n                }\n\n            lastResults[i] = price;\n        }\n        if (highestGain > 0) {\n            king = highestGainer;\n        } else if (leastLoss > 0) {\n            king = leastLoser;\n        }\n    }\n}\n",
  "sourcePath": "/Users/hrishi/king-of-crypto/contracts/King.sol",
  "compiler": {
    "name": "solc",
    "version": "0.5.10+commit.5a6ea5b1.Emscripten.clang"
  },
  "schemaVersion": "3.0.19",
  "updatedAt": "2019-12-24T04:28:38.416Z",
  "networkType": "ethereum",
  "devdoc": {
    "methods": {}
  },
  "userdoc": {
    "methods": {}
  }
}