{
  "contractName": "King",
  "abi": [
    {
      "constant": true,
      "inputs": [
        {
          "name": "",
          "type": "uint256"
        }
      ],
      "name": "jobs",
      "outputs": [
        {
          "name": "",
          "type": "uint256"
        }
      ],
      "payable": false,
      "stateMutability": "view",
      "type": "function"
    },
    {
      "constant": true,
      "inputs": [
        {
          "name": "",
          "type": "uint256"
        }
      ],
      "name": "lastResults",
      "outputs": [
        {
          "name": "",
          "type": "uint256"
        }
      ],
      "payable": false,
      "stateMutability": "view",
      "type": "function"
    },
    {
      "constant": true,
      "inputs": [],
      "name": "numJobs",
      "outputs": [
        {
          "name": "",
          "type": "uint256"
        }
      ],
      "payable": false,
      "stateMutability": "view",
      "type": "function"
    },
    {
      "constant": true,
      "inputs": [],
      "name": "king",
      "outputs": [
        {
          "name": "",
          "type": "uint256"
        }
      ],
      "payable": false,
      "stateMutability": "view",
      "type": "function"
    },
    {
      "constant": true,
      "inputs": [],
      "name": "delegator",
      "outputs": [
        {
          "name": "",
          "type": "address"
        }
      ],
      "payable": false,
      "stateMutability": "view",
      "type": "function"
    },
    {
      "inputs": [],
      "payable": false,
      "stateMutability": "nonpayable",
      "type": "constructor"
    },
    {
      "constant": true,
      "inputs": [],
      "name": "test",
      "outputs": [
        {
          "name": "",
          "type": "uint256"
        }
      ],
      "payable": false,
      "stateMutability": "view",
      "type": "function"
    },
    {
      "constant": false,
      "inputs": [
        {
          "name": "jobId",
          "type": "uint256"
        }
      ],
      "name": "addFeed",
      "outputs": [],
      "payable": false,
      "stateMutability": "nonpayable",
      "type": "function"
    },
    {
      "constant": false,
      "inputs": [],
      "name": "findKing",
      "outputs": [],
      "payable": false,
      "stateMutability": "nonpayable",
      "type": "function"
    }
  ],
  "bytecode": "0x60806040526000600255600060035534801561001a57600080fd5b5073058ef5a3d450a2fac5d24ddc75d516a136ae3f626000806101000a81548173ffffffffffffffffffffffffffffffffffffffff021916908373ffffffffffffffffffffffffffffffffffffffff1602179055506105f38061007e6000396000f3fe608060405234801561001057600080fd5b50600436106100885760003560e01c8063cc181ca81161005b578063cc181ca81461015d578063ce9b79301461017b578063cf8975c3146101c5578063f8a8fd6d146101cf57610088565b8063180aedf31461008d5780633924ec8a146100cf5780639212051c14610111578063b7e785b61461012f575b600080fd5b6100b9600480360360208110156100a357600080fd5b81019080803590602001909291905050506101ed565b6040518082815260200191505060405180910390f35b6100fb600480360360208110156100e557600080fd5b810190808035906020019092919050505061020e565b6040518082815260200191505060405180910390f35b61011961022f565b6040518082815260200191505060405180910390f35b61015b6004803603602081101561014557600080fd5b8101908080359060200190929190505050610235565b005b61016561029d565b6040518082815260200191505060405180910390f35b6101836102a3565b604051808273ffffffffffffffffffffffffffffffffffffffff1673ffffffffffffffffffffffffffffffffffffffff16815260200191505060405180910390f35b6101cd6102c8565b005b6101d7610504565b6040518082815260200191505060405180910390f35b600181815481106101fa57fe5b906000526020600020016000915090505481565b6004818154811061021b57fe5b906000526020600020016000915090505481565b60025481565b600181908060018154018082558091505090600182039060005260206000200160009091929091909150555060016002540160028190555060046000908060018154018082558091505090600182039060005260206000200160009091929091909150555050565b60035481565b6000809054906101000a900473ffffffffffffffffffffffffffffffffffffffff1681565b600080905060008090506000809050600080905060008090505b6001805490508110156104d65760008060009054906101000a900473ffffffffffffffffffffffffffffffffffffffff1673ffffffffffffffffffffffffffffffffffffffff1663995e43396001848154811061033b57fe5b90600052602060002001546040518263ffffffff1660e01b81526004018082815260200191505060206040518083038186803b15801561037a57600080fd5b505afa15801561038e573d6000803e3d6000fd5b505050506040513d60208110156103a457600080fd5b81019080805190602001909291905050509050600482815481106103c457fe5b90600052602060002001548111156104335785600483815481106103e457fe5b90600052602060002001548203111561042e576004828154811061040457fe5b9060005260206000200154810395506001828154811061042057fe5b906000526020600020015494505b6104ac565b6004828154811061044057fe5b90600052602060002001548110156104ab5783816004848154811061046157fe5b90600052602060002001540310156104aa57806004838154811061048157fe5b90600052602060002001540393506001828154811061049c57fe5b906000526020600020015492505b5b5b80600483815481106104ba57fe5b90600052602060002001819055505080806001019150506102e2565b5060008411156104ec57826003819055506104fe565b60008211156104fd57806003819055505b5b50505050565b6000806000809054906101000a900473ffffffffffffffffffffffffffffffffffffffff1673ffffffffffffffffffffffffffffffffffffffff1663995e433960016040518263ffffffff1660e01b81526004018082815260200191505060206040518083038186803b15801561057a57600080fd5b505afa15801561058e573d6000803e3d6000fd5b505050506040513d60208110156105a457600080fd5b81019080805190602001909291905050509050809150509056fea265627a7a72305820c1a391fda4ef5a6b92b19c67dabf373936a6b7daf8f5e33fa484e5738ec4560264736f6c634300050a0032",
  "source": "pragma solidity 0.5.10;\n\nimport \"../../contracts/contracts/Delegator.sol\";\n\n\ncontract King {\n    Delegator public delegator;\n    uint256[] public jobs;\n    uint256 public numJobs = 0;\n    uint256 public king = 0;\n    uint256[] public lastResults;\n\n    constructor() public {\n        delegator = Delegator(0x058EF5a3d450A2fac5d24dDc75d516A136AE3f62);\n    }\n\n    function test() public view returns(uint256) {\n        // (, , , , uint256 price) = delegator.getJob(0);\n        uint256 price = delegator.getResult(1);\n        return price;\n    }\n\n    function addFeed(uint256 jobId) public {\n        jobs.push(jobId);\n        numJobs = numJobs + 1;\n        lastResults.push(0);\n    }\n\n    function findKing() public {\n        uint256 highestGain = 0;\n        uint256 highestGainer = 0;\n        uint256 leastLoss = 0;\n        uint256 leastLoser = 0;\n        // uint256 newKing = 0;\n        for(uint256 i = 0; i < jobs.length; i++) {\n            uint256 price = delegator.getResult(jobs[i]);\n            if(price > lastResults[i]) {\n                if(price - lastResults[i] > highestGain) {\n                    highestGain = price - lastResults[i];\n                    highestGainer = jobs[i];\n                }\n            } else if(price < lastResults[i]) {\n                    if(lastResults[i] - price < leastLoss) {\n                        leastLoss = lastResults[i] - price;\n                        leastLoser = jobs[i];\n                    }\n                }\n\n            lastResults[i] = price;\n        // king = newKing;\n        }\n        if (highestGain > 0) {\n            king = highestGainer;\n        } else if (leastLoss > 0) {\n            king = leastLoser;\n        }\n    }\n}\n",
  "sourcePath": "/Users/hrishi/king-of-crypto/contracts/King.sol",
  "compiler": {
    "name": "solc",
    "version": "0.5.10+commit.5a6ea5b1.Emscripten.clang"
  },
  "schemaVersion": "3.0.16",
  "updatedAt": "2019-12-01T10:00:24.000Z",
  "devdoc": {
    "methods": {}
  },
  "userdoc": {
    "methods": {}
  }
}