{
  "contractName": "King",
  "abi": [
    {
      "inputs": [],
      "stateMutability": "nonpayable",
      "type": "constructor"
    },
    {
      "inputs": [
        {
          "internalType": "uint256",
          "name": "",
          "type": "uint256"
        }
      ],
      "name": "jobs",
      "outputs": [
        {
          "internalType": "uint256",
          "name": "",
          "type": "uint256"
        }
      ],
      "stateMutability": "view",
      "type": "function",
      "constant": true
    },
    {
      "inputs": [],
      "name": "king",
      "outputs": [
        {
          "internalType": "uint256",
          "name": "",
          "type": "uint256"
        }
      ],
      "stateMutability": "view",
      "type": "function",
      "constant": true
    },
    {
      "inputs": [
        {
          "internalType": "uint256",
          "name": "",
          "type": "uint256"
        }
      ],
      "name": "lastResults",
      "outputs": [
        {
          "internalType": "uint256",
          "name": "",
          "type": "uint256"
        }
      ],
      "stateMutability": "view",
      "type": "function",
      "constant": true
    },
    {
      "inputs": [],
      "name": "numJobs",
      "outputs": [
        {
          "internalType": "uint256",
          "name": "",
          "type": "uint256"
        }
      ],
      "stateMutability": "view",
      "type": "function",
      "constant": true
    },
    {
      "inputs": [],
      "name": "razor",
      "outputs": [
        {
          "internalType": "contract Razor",
          "name": "",
          "type": "address"
        }
      ],
      "stateMutability": "view",
      "type": "function",
      "constant": true
    },
    {
      "inputs": [
        {
          "internalType": "uint256",
          "name": "jobId",
          "type": "uint256"
        }
      ],
      "name": "addFeed",
      "outputs": [],
      "stateMutability": "nonpayable",
      "type": "function"
    },
    {
      "inputs": [],
      "name": "findKing",
      "outputs": [],
      "stateMutability": "nonpayable",
      "type": "function"
    }
  ],
  "bytecode": "0x60806040526000600255600060035534801561001a57600080fd5b50736fbdb9a4a27e17dcc852c093629b2808b09c663e6000806101000a81548173ffffffffffffffffffffffffffffffffffffffff021916908373ffffffffffffffffffffffffffffffffffffffff16021790555061050b8061007e6000396000f3fe608060405234801561001057600080fd5b506004361061007d5760003560e01c80639212051c1161005b5780639212051c14610150578063b7e785b61461016e578063cc181ca81461019c578063cf8975c3146101ba5761007d565b8063180aedf3146100825780633924ec8a146100c4578063426dbe4e14610106575b600080fd5b6100ae6004803603602081101561009857600080fd5b81019080803590602001909291905050506101c4565b6040518082815260200191505060405180910390f35b6100f0600480360360208110156100da57600080fd5b81019080803590602001909291905050506101e5565b6040518082815260200191505060405180910390f35b61010e610206565b604051808273ffffffffffffffffffffffffffffffffffffffff1673ffffffffffffffffffffffffffffffffffffffff16815260200191505060405180910390f35b61015861022b565b6040518082815260200191505060405180910390f35b61019a6004803603602081101561018457600080fd5b8101908080359060200190929190505050610231565b005b6101a4610293565b6040518082815260200191505060405180910390f35b6101c2610299565b005b600181815481106101d157fe5b906000526020600020016000915090505481565b600481815481106101f257fe5b906000526020600020016000915090505481565b6000809054906101000a900473ffffffffffffffffffffffffffffffffffffffff1681565b60025481565b600181908060018154018082558091505060019003906000526020600020016000909190919091505560016002540160028190555060046000908060018154018082558091505060019003906000526020600020016000909190919091505550565b60035481565b600080905060008090506000809050600080905060008090505b6001805490508110156104a75760008060009054906101000a900473ffffffffffffffffffffffffffffffffffffffff1673ffffffffffffffffffffffffffffffffffffffff1663995e43396001848154811061030c57fe5b90600052602060002001546040518263ffffffff1660e01b81526004018082815260200191505060206040518083038186803b15801561034b57600080fd5b505afa15801561035f573d6000803e3d6000fd5b505050506040513d602081101561037557600080fd5b810190808051906020019092919050505090506004828154811061039557fe5b90600052602060002001548111156104045785600483815481106103b557fe5b9060005260206000200154820311156103ff57600482815481106103d557fe5b906000526020600020015481039550600182815481106103f157fe5b906000526020600020015494505b61047d565b6004828154811061041157fe5b906000526020600020015481101561047c5783816004848154811061043257fe5b906000526020600020015403101561047b57806004838154811061045257fe5b90600052602060002001540393506001828154811061046d57fe5b906000526020600020015492505b5b5b806004838154811061048b57fe5b90600052602060002001819055505080806001019150506102b3565b5060008411156104bd57826003819055506104cf565b60008211156104ce57806003819055505b5b5050505056fea26469706673582212205470fb727901d4620d161619c08dbb8877908747d922c1043990c13e33458a4e64736f6c634300060b0033",
  "immutableReferences": {},
  "source": "pragma solidity 0.6.11;\n\ninterface Razor {\n    function getResult(uint256 id) external view returns (uint256);\n    function getJob(uint256 id) external view returns(string memory url, string memory selector, string memory name, bool repeat, uint256 result);\n}\n\ncontract King {\n    Razor public razor;\n    uint256[] public jobs;\n    uint256 public numJobs = 0;\n    uint256 public king = 0;\n    uint256[] public lastResults;\n\n    constructor() public {\n        razor = Razor(0x6FBDB9A4A27E17dcc852C093629b2808B09c663e);\n    }\n\n    function addFeed(uint256 jobId) public {\n        jobs.push(jobId);\n        numJobs = numJobs + 1;\n        lastResults.push(0);\n    }\n\n    function findKing() public {\n        uint256 highestGain = 0;\n        uint256 highestGainer = 0;\n        uint256 leastLoss = 0;\n        uint256 leastLoser = 0;\n        for(uint256 i = 0; i < jobs.length; i++) {\n            uint256 price = razor.getResult(jobs[i]);\n            if(price > lastResults[i]) {\n                if(price - lastResults[i] > highestGain) {\n                    highestGain = price - lastResults[i];\n                    highestGainer = jobs[i];\n                }\n            } else if(price < lastResults[i]) {\n                    if(lastResults[i] - price < leastLoss) {\n                        leastLoss = lastResults[i] - price;\n                        leastLoser = jobs[i];\n                    }\n                }\n\n            lastResults[i] = price;\n        }\n        if (highestGain > 0) {\n            king = highestGainer;\n        } else if (leastLoss > 0) {\n            king = leastLoser;\n        }\n    }\n}\n",
  "sourcePath": "/home/user/Documents/Razor-Internship/king-of-crypto/contracts/King.sol",
  "compiler": {
    "name": "solc",
    "version": "0.6.11+commit.5ef660b1.Emscripten.clang"
  },
  "schemaVersion": "3.2.2",
  "updatedAt": "2020-08-06T06:24:21.362Z",
  "networkType": "ethereum",
  "devdoc": {
    "kind": "dev",
    "methods": {},
    "version": 1
  },
  "userdoc": {
    "kind": "user",
    "methods": {},
    "version": 1
  }
}