{
  "contractName": "King",
  "abi": [
    {
      "constant": true,
      "inputs": [],
      "name": "delegator",
      "outputs": [
        {
          "name": "",
          "type": "address"
        }
      ],
      "payable": false,
      "stateMutability": "view",
      "type": "function"
    },
    {
      "inputs": [],
      "payable": false,
      "stateMutability": "nonpayable",
      "type": "constructor"
    },
    {
      "constant": false,
      "inputs": [
        {
          "name": "jobId",
          "type": "uint256"
        }
      ],
      "name": "addFeed",
      "outputs": [],
      "payable": false,
      "stateMutability": "nonpayable",
      "type": "function"
    },
    {
      "constant": false,
      "inputs": [],
      "name": "findKing",
      "outputs": [],
      "payable": false,
      "stateMutability": "nonpayable",
      "type": "function"
    }
  ],
  "bytecode": "0x6080604052600060025534801561001557600080fd5b50734bcd81d77bb9d7493f99742b49b072c09d548cb46000806101000a81548173ffffffffffffffffffffffffffffffffffffffff021916908373ffffffffffffffffffffffffffffffffffffffff16021790555061039d806100796000396000f3fe608060405234801561001057600080fd5b50600436106100415760003560e01c8063b7e785b614610046578063ce9b793014610074578063cf8975c3146100be575b600080fd5b6100726004803603602081101561005c57600080fd5b81019080803590602001909291905050506100c8565b005b61007c6100eb565b604051808273ffffffffffffffffffffffffffffffffffffffff1673ffffffffffffffffffffffffffffffffffffffff16815260200191505060405180910390f35b6100c6610110565b005b8060018080549050815481106100da57fe5b906000526020600020018190555050565b6000809054906101000a900473ffffffffffffffffffffffffffffffffffffffff1681565b6000809050600080905060008090505b6001805490508110156103635760008060009054906101000a900473ffffffffffffffffffffffffffffffffffffffff1673ffffffffffffffffffffffffffffffffffffffff1663bf22c457836040518263ffffffff1660e01b81526004018082815260200191505060006040518083038186803b1580156101a157600080fd5b505afa1580156101b5573d6000803e3d6000fd5b505050506040513d6000823e3d601f19601f8201168201806040525060a08110156101df57600080fd5b8101908080516401000000008111156101f757600080fd5b8281019050602081018481111561020d57600080fd5b815185600182028301116401000000008211171561022a57600080fd5b5050929190602001805164010000000081111561024657600080fd5b8281019050602081018481111561025c57600080fd5b815185600182028301116401000000008211171561027957600080fd5b5050929190602001805164010000000081111561029557600080fd5b828101905060208101848111156102ab57600080fd5b81518560018202830111640100000000821117156102c857600080fd5b50509291906020018051906020019092919080519060200190929190505050945050505050600382815481106102fa57fe5b906000526020600020015481111561034e57836003838154811061031a57fe5b90600052602060002001548203111561034d576003828154811061033a57fe5b9060005260206000200154810393508192505b5b82600281905550508080600101915050610120565b50505056fea265627a7a723058209e7a6b000505babcac0e86b6448b0386ba6e4a0269d894519ad1b4e10e506bdc64736f6c634300050a0032",
  "source": "pragma solidity 0.5.10;\n\nimport \"../../contracts/contracts/IDelegator.sol\";\n\n\ncontract King {\n    IDelegator public delegator;\n    uint256[] jobs;\n    uint256 king = 0;\n    uint256[] lastResults;\n\n    constructor() public {\n        delegator = IDelegator(0x4Bcd81d77Bb9d7493F99742b49B072c09D548CB4);\n    }\n\n    function addFeed(uint256 jobId) public {\n        jobs[jobs.length]=(jobId);\n    }\n\n    function findKing() public {\n        uint256 biggestDiff = 0;\n        uint256 newKing = 0;\n        for(uint256 i = 0; i < jobs.length; i++) {\n            (, , , , uint256 price) = delegator.getJob(i);\n            if(price > lastResults[i]) {\n                if(price - lastResults[i] > biggestDiff) {\n                    biggestDiff = price - lastResults[i];\n                    newKing = i;\n                }\n            }\n        king = newKing;\n\n    }\n    }\n\n}\n",
  "sourcePath": "/Users/hrishi/king-of-crypto/contracts/King.sol",
  "compiler": {
    "name": "solc",
    "version": "0.5.10+commit.5a6ea5b1.Emscripten.clang"
  },
  "schemaVersion": "3.0.16",
  "updatedAt": "2019-11-30T16:16:53.380Z",
  "devdoc": {
    "methods": {}
  },
  "userdoc": {
    "methods": {}
  }
}